{
  "contractName": "ItemManager",
  "abi": [
    {
      "anonymous": false,
      "inputs": [
        {
          "indexed": false,
          "internalType": "uint256",
          "name": "_itemIndex",
          "type": "uint256"
        },
        {
          "indexed": false,
          "internalType": "uint256",
          "name": "_step",
          "type": "uint256"
        },
        {
          "indexed": false,
          "internalType": "address",
          "name": "_address",
          "type": "address"
        }
      ],
      "name": "SupplyChainStep",
      "type": "event"
    },
    {
      "inputs": [],
      "name": "_owner",
      "outputs": [
        {
          "internalType": "address",
          "name": "",
          "type": "address"
        }
      ],
      "stateMutability": "view",
      "type": "function",
      "constant": true
    },
    {
      "inputs": [],
      "name": "isOwner",
      "outputs": [
        {
          "internalType": "bool",
          "name": "",
          "type": "bool"
        }
      ],
      "stateMutability": "view",
      "type": "function",
      "constant": true
    },
    {
      "inputs": [
        {
          "internalType": "string",
          "name": "_identifier",
          "type": "string"
        },
        {
          "internalType": "uint256",
          "name": "_priceInWei",
          "type": "uint256"
        }
      ],
      "name": "createItem",
      "outputs": [],
      "stateMutability": "nonpayable",
      "type": "function"
    },
    {
      "inputs": [
        {
          "internalType": "uint256",
          "name": "_index",
          "type": "uint256"
        }
      ],
      "name": "triggerPayment",
      "outputs": [],
      "stateMutability": "payable",
      "type": "function",
      "payable": true
    },
    {
      "inputs": [
        {
          "internalType": "uint256",
          "name": "_index",
          "type": "uint256"
        }
      ],
      "name": "triggerDelivery",
      "outputs": [],
      "stateMutability": "nonpayable",
      "type": "function"
    }
  ],
  "bytecode": "0x6080604052336000806101000a81548173ffffffffffffffffffffffffffffffffffffffff021916908373ffffffffffffffffffffffffffffffffffffffff16021790555061109c806100536000396000f3fe60806040526004361061004a5760003560e01c8063800fb83f1461004f5780638c5517421461007d5780638f32d59b1461014f578063b2bdfa7b1461017e578063cd31831e146101d5575b600080fd5b61007b6004803603602081101561006557600080fd5b8101908080359060200190929190505050610210565b005b34801561008957600080fd5b5061014d600480360360408110156100a057600080fd5b81019080803590602001906401000000008111156100bd57600080fd5b8201836020820111156100cf57600080fd5b803590602001918460018302840111640100000000831117156100f157600080fd5b91908080601f016020809104026020016040519081016040528093929190818152602001838380828437600081840152601f19601f820116905080830192505050505050509192919290803590602001909291905050506105b0565b005b34801561015b57600080fd5b5061016461081a565b604051808215151515815260200191505060405180910390f35b34801561018a57600080fd5b50610193610871565b604051808273ffffffffffffffffffffffffffffffffffffffff1673ffffffffffffffffffffffffffffffffffffffff16815260200191505060405180910390f35b3480156101e157600080fd5b5061020e600480360360208110156101f857600080fd5b8101908080359060200190929190505050610896565b005b61021861081a565b61028a576040517f08c379a00000000000000000000000000000000000000000000000000000000081526004018080602001828103825260208152602001807f4f776e61626c653a2063616c6c6572206973206e6f7420746865206f776e657281525060200191505060405180910390fd5b60006001600083815260200190815260200160002060000160009054906101000a900473ffffffffffffffffffffffffffffffffffffffff1690503373ffffffffffffffffffffffffffffffffffffffff168173ffffffffffffffffffffffffffffffffffffffff1614610349576040517f08c379a000000000000000000000000000000000000000000000000000000000815260040180806020018281038252602b815260200180611019602b913960400191505060405180910390fd5b348173ffffffffffffffffffffffffffffffffffffffff16633c8da5886040518163ffffffff1660e01b815260040160206040518083038186803b15801561039057600080fd5b505afa1580156103a4573d6000803e3d6000fd5b505050506040513d60208110156103ba57600080fd5b81019080805190602001909291905050501461043e576040517f08c379a00000000000000000000000000000000000000000000000000000000081526004018080602001828103825260128152602001807f4e6f742066756c6c79207061696420796574000000000000000000000000000081525060200191505060405180910390fd5b6000600281111561044b57fe5b60016000600254815260200190815260200160002060000160149054906101000a900460ff16600281111561047c57fe5b146104d2576040517f08c379a00000000000000000000000000000000000000000000000000000000081526004018080602001828103825260238152602001806110446023913960400191505060405180910390fd5b6001806000600254815260200190815260200160002060000160146101000a81548160ff0219169083600281111561050657fe5b02179055507fa4035636e99f06b7651a604c1019fa4e8779fe68ef27eeb74dff2de348f6199b826001600085815260200190815260200160002060000160149054906101000a900460ff16600281111561055c57fe5b83604051808481526020018381526020018273ffffffffffffffffffffffffffffffffffffffff1673ffffffffffffffffffffffffffffffffffffffff168152602001935050505060405180910390a15050565b6105b861081a565b61062a576040517f08c379a00000000000000000000000000000000000000000000000000000000081526004018080602001828103825260208152602001807f4f776e61626c653a2063616c6c6572206973206e6f7420746865206f776e657281525060200191505060405180910390fd5b6000308260025460405161063d90610ab4565b808473ffffffffffffffffffffffffffffffffffffffff1673ffffffffffffffffffffffffffffffffffffffff1681526020018381526020018281526020019350505050604051809103906000f08015801561069d573d6000803e3d6000fd5b5090508060016000600254815260200190815260200160002060000160006101000a81548173ffffffffffffffffffffffffffffffffffffffff021916908373ffffffffffffffffffffffffffffffffffffffff160217905550600060016000600254815260200190815260200160002060000160146101000a81548160ff0219169083600281111561072c57fe5b021790555082600160006002548152602001908152602001600020600101908051906020019061075d929190610ac1565b507fa4035636e99f06b7651a604c1019fa4e8779fe68ef27eeb74dff2de348f6199b60025460016000600254815260200190815260200160002060000160149054906101000a900460ff1660028111156107b357fe5b83604051808481526020018381526020018273ffffffffffffffffffffffffffffffffffffffff1673ffffffffffffffffffffffffffffffffffffffff168152602001935050505060405180910390a1600260008154809291906001019190505550505050565b60008060009054906101000a900473ffffffffffffffffffffffffffffffffffffffff1673ffffffffffffffffffffffffffffffffffffffff163373ffffffffffffffffffffffffffffffffffffffff1614905090565b6000809054906101000a900473ffffffffffffffffffffffffffffffffffffffff1681565b61089e61081a565b610910576040517f08c379a00000000000000000000000000000000000000000000000000000000081526004018080602001828103825260208152602001807f4f776e61626c653a2063616c6c6572206973206e6f7420746865206f776e657281525060200191505060405180910390fd5b6001600281111561091d57fe5b6001600083815260200190815260200160002060000160149054906101000a900460ff16600281111561094c57fe5b146109a2576040517f08c379a00000000000000000000000000000000000000000000000000000000081526004018080602001828103825260238152602001806110446023913960400191505060405180910390fd5b60026001600083815260200190815260200160002060000160146101000a81548160ff021916908360028111156109d557fe5b02179055507fa4035636e99f06b7651a604c1019fa4e8779fe68ef27eeb74dff2de348f6199b816001600084815260200190815260200160002060000160149054906101000a900460ff166002811115610a2b57fe5b6001600085815260200190815260200160002060000160009054906101000a900473ffffffffffffffffffffffffffffffffffffffff16604051808481526020018381526020018273ffffffffffffffffffffffffffffffffffffffff1673ffffffffffffffffffffffffffffffffffffffff168152602001935050505060405180910390a150565b6104b280610b6783390190565b828054600181600116156101000203166002900490600052602060002090601f016020900481019282601f10610b0257805160ff1916838001178555610b30565b82800160010185558215610b30579182015b82811115610b2f578251825591602001919060010190610b14565b5b509050610b3d9190610b41565b5090565b610b6391905b80821115610b5f576000816000905550600101610b47565b5090565b9056fe608060405234801561001057600080fd5b506040516104b23803806104b28339818101604052606081101561003357600080fd5b81019080805190602001909291908051906020019092919080519060200190929190505050816000819055508060028190555082600360006101000a81548173ffffffffffffffffffffffffffffffffffffffff021916908373ffffffffffffffffffffffffffffffffffffffff1602179055505050506103f9806100b96000396000f3fe6080604052600436106100385760003560e01c80632986c0e51461030e5780633c8da5881461033957806383d12eef14610364576102ff565b366102ff576000543414610097576040517f08c379a00000000000000000000000000000000000000000000000000000000081526004018080602001828103825260228152602001806103a26022913960400191505060405180910390fd5b60006001541461010f576040517f08c379a00000000000000000000000000000000000000000000000000000000081526004018080602001828103825260158152602001807f4974656d20697320616c7265616479207061696421000000000000000000000081525060200191505060405180910390fd5b346001600082825401925050819055506000600360009054906101000a900473ffffffffffffffffffffffffffffffffffffffff1673ffffffffffffffffffffffffffffffffffffffff1634600254604051602401808281526020019150506040516020818303038152906040527f800fb83f000000000000000000000000000000000000000000000000000000007bffffffffffffffffffffffffffffffffffffffffffffffffffffffff19166020820180517bffffffffffffffffffffffffffffffffffffffffffffffffffffffff83818316178352505050506040518082805190602001908083835b6020831061021e57805182526020820191506020810190506020830392506101fb565b6001836020036101000a03801982511681845116808217855250505050505090500191505060006040518083038185875af1925050503d8060008114610280576040519150601f19603f3d011682016040523d82523d6000602084013e610285565b606091505b50509050806102fc576040517f08c379a00000000000000000000000000000000000000000000000000000000081526004018080602001828103825260158152602001807f44656c697665727920646964206e6f7420776f726b000000000000000000000081525060200191505060405180910390fd5b50005b34801561030b57600080fd5b50005b34801561031a57600080fd5b5061032361038f565b6040518082815260200191505060405180910390f35b34801561034557600080fd5b5061034e610395565b6040518082815260200191505060405180910390f35b34801561037057600080fd5b5061037961039b565b6040518082815260200191505060405180910390f35b60025481565b60005481565b6001548156fe576520646f206e6f7420737570706f7274207061727469616c207061796d656e7473a264697066735822122055f9f3b7905fdc55f1f3f625c38329b7016ab78006a2217ee6215a5ab01f6f4f64736f6c634300060000334f6e6c79206974656d732061726520616c6c6f77656420746f20757064617465207468656d73656c7665734974656d206973206675727468657220696e2074686520737570706c7920636861696ea26469706673582212205054b386bc5103a7608163da07bf4eea325ffa73bf24b203242498f8e47aa50564736f6c63430006000033",
  "source": "pragma solidity ^0.6.0;\nimport \"./Ownable.sol\";\nimport \"./Item.sol\";\n\ncontract  ItemManager is Ownable {\n\n    struct S_Item {\n      Item _item;\n      ItemManager.SupplyChainSteps _step;\n      string _identifier;\n      //uint _priceInWei;\n    }\n    mapping (uint => S_Item) items;\n    uint index;\n\n    enum SupplyChainSteps {Created, Paid, Delivered}\n\n    event SupplyChainStep(uint _itemIndex, uint _step, address _address);\n\n    function createItem(string memory _identifier, uint _priceInWei) public onlyOwner {\n\n      //items[index]._priceInWei = _priceInWei;\n      Item item = new Item(this, _priceInWei, index);\n      items[index]._item = item;\n      items[index]._step = SupplyChainSteps.Created;\n      items[index]._identifier = _identifier;\n      emit SupplyChainStep(index , uint(items[index]._step), address(item));\n      index++;\n    }\n\n    function triggerPayment(uint _index) public payable onlyOwner{\n      Item item = items[_index]._item;\n      require(address(item) == msg.sender, \"Only items are allowed to update themselves\");\n      require(item.priceInWei() == msg.value, \"Not fully paid yet\");\n      //require(items[index]._priceInWei <= msg.value, \"Not fully paid\");\n      require(items[index]._step == SupplyChainSteps.Created, \"Item is further in the supply chain\");\n      items[index]._step = SupplyChainSteps.Paid;\n      emit SupplyChainStep(_index, uint(items[_index]._step), address(item));\n    }\n\n    function triggerDelivery(uint _index) public onlyOwner {\n\n      require(items[_index]._step == SupplyChainSteps.Paid, \"Item is further in the supply chain\");\n      items[_index]._step = SupplyChainSteps.Delivered;\n      emit SupplyChainStep(_index, uint(items[_index]._step), address(items[_index]._item));\n\n    }\n}\n",
  "sourcePath": "/home/baye/Bureau/Full_Project_07/contracts/ItemManager.sol",
  "compiler": {
    "name": "solc",
    "version": "0.6.0+commit.26b70077.Emscripten.clang"
  },
  "schemaVersion": "3.2.3",
  "updatedAt": "2020-09-16T15:41:19.000Z",
  "networkType": "ethereum",
  "devdoc": {
    "methods": {
      "isOwner()": {
        "details": "Returns true if the caller is the current owner"
      }
    }
  },
  "userdoc": {
    "methods": {}
  }
}